{
  "contractName": "SplitBits",
  "abi": [
    {
      "constant": true,
      "inputs": [
        {
          "name": "",
          "type": "address"
        }
      ],
      "name": "participants",
      "outputs": [
        {
          "name": "name",
          "type": "string"
        },
        {
          "name": "waddress",
          "type": "address"
        },
        {
          "name": "balance",
          "type": "int256"
        }
      ],
      "payable": false,
      "stateMutability": "view",
      "type": "function"
    },
    {
      "constant": true,
      "inputs": [
        {
          "name": "",
          "type": "address"
        }
      ],
      "name": "withdrawals",
      "outputs": [
        {
          "name": "",
          "type": "uint256"
        }
      ],
      "payable": false,
      "stateMutability": "view",
      "type": "function"
    },
    {
      "constant": true,
      "inputs": [
        {
          "name": "",
          "type": "uint256"
        }
      ],
      "name": "payments",
      "outputs": [
        {
          "name": "title",
          "type": "string"
        },
        {
          "name": "amount",
          "type": "uint256"
        },
        {
          "name": "payer",
          "type": "address"
        },
        {
          "name": "payee",
          "type": "address"
        }
      ],
      "payable": false,
      "stateMutability": "view",
      "type": "function"
    },
    {
      "constant": true,
      "inputs": [
        {
          "name": "",
          "type": "uint256"
        }
      ],
      "name": "expenses",
      "outputs": [
        {
          "name": "title",
          "type": "string"
        },
        {
          "name": "amount",
          "type": "uint256"
        },
        {
          "name": "payer",
          "type": "address"
        }
      ],
      "payable": false,
      "stateMutability": "view",
      "type": "function"
    },
    {
      "constant": false,
      "inputs": [
        {
          "name": "_name",
          "type": "string"
        },
        {
          "name": "_waddress",
          "type": "address"
        }
      ],
      "name": "createParticipant",
      "outputs": [],
      "payable": false,
      "stateMutability": "nonpayable",
      "type": "function"
    },
    {
      "constant": false,
      "inputs": [
        {
          "name": "_title",
          "type": "string"
        },
        {
          "name": "_amount",
          "type": "uint256"
        },
        {
          "name": "_payees",
          "type": "address[]"
        }
      ],
      "name": "createExpense",
      "outputs": [],
      "payable": false,
      "stateMutability": "nonpayable",
      "type": "function"
    },
    {
      "constant": false,
      "inputs": [
        {
          "name": "_title",
          "type": "string"
        },
        {
          "name": "_payee",
          "type": "address"
        }
      ],
      "name": "createPayment",
      "outputs": [],
      "payable": true,
      "stateMutability": "payable",
      "type": "function"
    },
    {
      "constant": false,
      "inputs": [
        {
          "name": "indexExpense",
          "type": "uint256"
        }
      ],
      "name": "calculateBalance",
      "outputs": [],
      "payable": false,
      "stateMutability": "nonpayable",
      "type": "function"
    },
    {
      "constant": false,
      "inputs": [],
      "name": "withdraw",
      "outputs": [],
      "payable": false,
      "stateMutability": "nonpayable",
      "type": "function"
    }
  ],
  "bytecode": "0x608060405234801561001057600080fd5b50610fcc806100206000396000f3fe6080604052600436106100985763ffffffff7c010000000000000000000000000000000000000000000000000000000060003504166309e69ede811461009d5780633ccfd60b14610168578063508c9dbf1461017f57806366aeccbf146101a95780637a9262a2146102e857806387d817891461032d578063af4afe0a14610408578063f8008ec91461048c578063f8164e591461054a575b600080fd5b3480156100a957600080fd5b506100d0600480360360208110156100c057600080fd5b5035600160a060020a03166105fb565b604051808060200184600160a060020a0316600160a060020a03168152602001838152602001828103825285818151815260200191508051906020019080838360005b8381101561012b578181015183820152602001610113565b50505050905090810190601f1680156101585780820380516001836020036101000a031916815260200191505b5094505050505060405180910390f35b34801561017457600080fd5b5061017d6106af565b005b34801561018b57600080fd5b5061017d600480360360208110156101a257600080fd5b503561070e565b3480156101b557600080fd5b5061017d600480360360608110156101cc57600080fd5b8101906020810181356401000000008111156101e757600080fd5b8201836020820111156101f957600080fd5b8035906020019184600183028401116401000000008311171561021b57600080fd5b91908080601f0160208091040260200160405190810160405280939291908181526020018383808284376000920191909152509295843595909490935060408101925060200135905064010000000081111561027657600080fd5b82018360208201111561028857600080fd5b803590602001918460208302840111640100000000831117156102aa57600080fd5b9190808060200260200160405190810160405280939291908181526020018383602002808284376000920191909152509295506107e7945050505050565b3480156102f457600080fd5b5061031b6004803603602081101561030b57600080fd5b5035600160a060020a031661093a565b60408051918252519081900360200190f35b34801561033957600080fd5b506103576004803603602081101561035057600080fd5b503561094c565b604051808060200185815260200184600160a060020a0316600160a060020a0316815260200183600160a060020a0316600160a060020a03168152602001828103825286818151815260200191508051906020019080838360005b838110156103ca5781810151838201526020016103b2565b50505050905090810190601f1680156103f75780820380516001836020036101000a031916815260200191505b509550505050505060405180910390f35b34801561041457600080fd5b506104326004803603602081101561042b57600080fd5b5035610a1c565b604051808060200184815260200183600160a060020a0316600160a060020a03168152602001828103825285818151815260200191508051906020019080838360008381101561012b578181015183820152602001610113565b34801561049857600080fd5b5061017d600480360360408110156104af57600080fd5b8101906020810181356401000000008111156104ca57600080fd5b8201836020820111156104dc57600080fd5b803590602001918460018302840111640100000000831117156104fe57600080fd5b91908080601f01602080910402602001604051908101604052809392919081815260200183838082843760009201919091525092955050509035600160a060020a03169150610ae39050565b61017d6004803603604081101561056057600080fd5b81019060208101813564010000000081111561057b57600080fd5b82018360208201111561058d57600080fd5b803590602001918460018302840111640100000000831117156105af57600080fd5b91908080601f01602080910402602001604051908101604052809392919081815260200183838082843760009201919091525092955050509035600160a060020a03169150610ba19050565b6000602081815291815260409081902080548251601f60026000196101006001861615020190931692909204918201859004850281018501909352808352909283919083018282801561068f5780601f106106645761010080835404028352916020019161068f565b820191906000526020600020905b81548152906001019060200180831161067257829003601f168201915b5050505060018301546002909301549192600160a060020a031691905083565b33600090815260036020526040812054116106c957600080fd5b33600081815260036020526040808220805490839055905190929183156108fc02918491818181858888f1935050505015801561070a573d6000803e3d6000fd5b5050565b600060018281548110151561071f57fe5b60009182526020822060036004909202019081015490925090811161074357600080fd5b600081836001015481151561075457fe5b6001850154600280870154600160a060020a03166000908152602081905260408120909101805483019055929091049250905b60038501548110156107df578260008087600301848154811015156107a857fe5b6000918252602080832090910154600160a060020a0316835282019290925260400190206002018054919091039055600101610787565b505050505050565b600082116107f457600080fd5b6000815111801561080757506014815111155b151561081257600080fd5b33600081815260208190526040902060010154600160a060020a03161461083857600080fd5b61084181610d14565b151561084c57600080fd5b610854610de2565b50604080516080810182528481526020808201859052339282019290925260608101839052600180548082018083556000929092528251805193949293859360049093027fb10e2d527612073b26eecdfd717e6a320cf44b4afac2b0732d9fcbe2b7fa0cf601926108c9928492910190610e14565b506020828101516001830155604083015160028301805473ffffffffffffffffffffffffffffffffffffffff1916600160a060020a039092169190911790556060830151805161091f9260038501920190610e92565b5050600154610934925060001901905061070e565b50505050565b60036020526000908152604090205481565b600280548290811061095a57fe5b60009182526020918290206004919091020180546040805160026001841615610100026000190190931692909204601f8101859004850283018501909152808252919350918391908301828280156109f35780601f106109c8576101008083540402835291602001916109f3565b820191906000526020600020905b8154815290600101906020018083116109d657829003601f168201915b505050506001830154600284015460039094015492939092600160a060020a0391821692501684565b6001805482908110610a2a57fe5b60009182526020918290206004919091020180546040805160026001841615610100026000190190931692909204601f810185900485028301850190915280825291935091839190830182828015610ac35780601f10610a9857610100808354040283529160200191610ac3565b820191906000526020600020905b815481529060010190602001808311610aa657829003601f168201915b505050506001830154600290930154919291600160a060020a0316905083565b600160a060020a038082166000818152602081905260409020600101549091161415610b0e57600080fd5b610b16610f00565b5060408051606081018252838152600160a060020a038316602080830182905260008385018190529182528181529290208151805192938493610b5c9284920190610e14565b50602082015160018201805473ffffffffffffffffffffffffffffffffffffffff1916600160a060020a03909216919091179055604090910151600290910155505050565b60003411610bae57600080fd5b600160a060020a038116331415610bc457600080fd5b33600081815260208190526040902060010154600160a060020a031614610bea57600080fd5b600160a060020a0380821660008181526020819052604090206001015490911614610c1457600080fd5b610c1c610f2b565b5060408051608081018252838152346020808301919091523392820192909252600160a060020a038316606082015260028054600181018083556000929092528251805193949293859360049093027f405787fa12a823e0f2b7631cc41b3ba8828b3321ca811111fa75cd3aa3bb5ace0192610c9c928492910190610e14565b50602082810151600183015560408084015160028401805473ffffffffffffffffffffffffffffffffffffffff19908116600160a060020a0393841617909155606090950151600394850180549096169082161790945592861660009081529190522080543401905550610d0f81610d64565b505050565b6000805b8251811015610d5957610d418382815181101515610d3257fe5b90602001906020020151610dac565b1515610d51576000915050610d5f565b600101610d18565b50600190505b919050565b602080820180516060840151600160a060020a039081166000908152938490526040808520600290810180549490940390935592519483015116835291200180549091019055565b600160a060020a038082166000818152602081905260408120600101549092161415610dda57506001610d5f565b506000610d5f565b60806040519081016040528060608152602001600081526020016000600160a060020a03168152602001606081525090565b828054600181600116156101000203166002900490600052602060002090601f016020900481019282601f10610e5557805160ff1916838001178555610e82565b82800160010185558215610e82579182015b82811115610e82578251825591602001919060010190610e67565b50610e8e929150610f52565b5090565b828054828255906000526020600020908101928215610ef4579160200282015b82811115610ef4578251825473ffffffffffffffffffffffffffffffffffffffff1916600160a060020a03909116178255602090920191600190910190610eb2565b50610e8e929150610f6f565b606060405190810160405280606081526020016000600160a060020a03168152602001600081525090565b60408051608081018252606080825260006020830181905292820183905281019190915290565b610f6c91905b80821115610e8e5760008155600101610f58565b90565b610f6c91905b80821115610e8e57805473ffffffffffffffffffffffffffffffffffffffff19168155600101610f7556fea165627a7a72305820cb1e78fb8bb9545c4ca2eee31c47be61d7c6cbc782f7c6b8c457c03cce4c2b3a0029",
  "source": "pragma solidity ^0.5.0;\r\n\r\ncontract SplitBits {\r\n\r\n    // Our constructor\r\n    //constructor() {\r\n    //}\r\n\r\n    struct Participant {\r\n        string name;\r\n        address waddress;\r\n        int balance;\r\n    }\r\n\r\n    struct Expense {\r\n        string title;\r\n        uint amount;\r\n        address payer; \r\n        address[] payees; \r\n    }\r\n\r\n    struct Payment {\r\n        string title;\r\n        uint amount;\r\n        address payer;\r\n        address payee;\r\n    }\r\n\r\n    mapping(address => Participant) public participants;\r\n\r\n    Expense[] public expenses;\r\n\r\n    Payment[] public payments;\r\n\r\n    function createParticipant(string memory _name, address _waddress) public {\r\n        require(_waddress != participants[_waddress].waddress);\r\n        Participant memory participant = Participant({name: _name, waddress: _waddress, balance: 0});\r\n        participants[_waddress] = participant;\r\n    }\r\n\r\n    function createExpense(string memory _title, uint _amount, address[] memory _payees) public {\r\n        require(_amount > 0);\r\n        require(_payees.length > 0 && _payees.length <= 20);\r\n        require(msg.sender == participants[msg.sender].waddress);\r\n        require(isParticipants(_payees));\r\n        Expense memory expense = Expense(_title, _amount, msg.sender, _payees);\r\n        expenses.push(expense);\r\n        calculateBalance((expenses.length)-1);\r\n    }\r\n\r\n    mapping(address => uint) public withdrawals;\r\n    \r\n    function createPayment(string memory _title, address _payee) public payable {   \r\n        require(msg.value > 0);\r\n        require(_payee != msg.sender);\r\n        require(msg.sender == participants[msg.sender].waddress);\r\n        require(_payee == participants[_payee].waddress);\r\n        Payment memory payment = Payment({title: _title, amount: msg.value, payer: msg.sender, payee: _payee});\r\n        payments.push(payment);\r\n        withdrawals[_payee] += msg.value;\r\n        syncBalancePayment(payment);\r\n    }\r\n\r\n    function syncBalancePayment(Payment memory payment) internal {\r\n        participants[payment.payee].balance -= int(payment.amount);\r\n        participants[payment.payer].balance += int(payment.amount);\r\n    }\r\n\r\n\r\n    function calculateBalance(uint indexExpense) public {\r\n        Expense storage expense = expenses[indexExpense];\r\n        uint contributors = expense.payees.length;\r\n        require(contributors > 0);\r\n        int _portion = int(expense.amount / contributors);\r\n        int _amount = int(expense.amount);\r\n        \r\n        participants[expense.payer].balance += _amount;\r\n        for (uint i = 0; i < expense.payees.length; i++) {\r\n            participants[expense.payees[i]].balance -= _portion;  \r\n        }       \r\n    }\r\n\r\n    function withdraw() public  {\r\n        require(withdrawals[msg.sender] > 0);\r\n        uint amount = withdrawals[msg.sender];\r\n        withdrawals[msg.sender] = 0;\r\n        msg.sender.transfer(amount);\r\n    }\r\n\r\n    function isParticipants(address[] memory list) internal returns (bool) {\r\n        for (uint i = 0; i < list.length; i++) {\r\n            if (!isParticipant(list[i])) {\r\n                return false;\r\n            }\r\n        }\r\n        return true;\r\n    }\r\n\r\n    /// @notice Check if each address of the list is registred as participant\r\n    /// @param _waddress the address to check \r\n    /// @return true if all the list is registred as participant, false otherwise\r\n    function isParticipant(address _waddress) internal returns (bool) {\r\n        if (_waddress == participants[_waddress].waddress) {\r\n            return true;\r\n        }else {\r\n            return false;\r\n        }\r\n    }\r\n\r\n}",
  "sourcePath": "D:/SHUBH/PROJECTS/Blockchain/SplitBits/contracts/SplitBits.sol",
  "compiler": {
    "name": "solc",
    "version": "0.5.0+commit.1d4f565a.Emscripten.clang"
  },
  "schemaVersion": "3.0.1",
  "updatedAt": "2022-10-07T21:43:49.335Z",
  "devdoc": {
    "methods": {}
  },
  "userdoc": {
    "methods": {}
  }
}