{
  "contractName": "SplitBits",
  "abi": [
    {
      "inputs": [],
      "name": "expenseCount",
      "outputs": [
        {
          "internalType": "int256",
          "name": "",
          "type": "int256"
        }
      ],
      "stateMutability": "view",
      "type": "function",
      "constant": true
    },
    {
      "inputs": [
        {
          "internalType": "uint256",
          "name": "",
          "type": "uint256"
        }
      ],
      "name": "expenses",
      "outputs": [
        {
          "internalType": "string",
          "name": "title",
          "type": "string"
        },
        {
          "internalType": "uint256",
          "name": "amount",
          "type": "uint256"
        },
        {
          "internalType": "address",
          "name": "payer",
          "type": "address"
        }
      ],
      "stateMutability": "view",
      "type": "function",
      "constant": true
    },
    {
      "inputs": [],
      "name": "participantCount",
      "outputs": [
        {
          "internalType": "int256",
          "name": "",
          "type": "int256"
        }
      ],
      "stateMutability": "view",
      "type": "function",
      "constant": true
    },
    {
      "inputs": [
        {
          "internalType": "address",
          "name": "",
          "type": "address"
        }
      ],
      "name": "participants",
      "outputs": [
        {
          "internalType": "string",
          "name": "name",
          "type": "string"
        },
        {
          "internalType": "address",
          "name": "waddress",
          "type": "address"
        },
        {
          "internalType": "int256",
          "name": "balance",
          "type": "int256"
        }
      ],
      "stateMutability": "view",
      "type": "function",
      "constant": true
    },
    {
      "inputs": [
        {
          "internalType": "int256",
          "name": "",
          "type": "int256"
        }
      ],
      "name": "participantsAddresses",
      "outputs": [
        {
          "internalType": "address",
          "name": "",
          "type": "address"
        }
      ],
      "stateMutability": "view",
      "type": "function",
      "constant": true
    },
    {
      "inputs": [],
      "name": "paymentCount",
      "outputs": [
        {
          "internalType": "int256",
          "name": "",
          "type": "int256"
        }
      ],
      "stateMutability": "view",
      "type": "function",
      "constant": true
    },
    {
      "inputs": [
        {
          "internalType": "uint256",
          "name": "",
          "type": "uint256"
        }
      ],
      "name": "payments",
      "outputs": [
        {
          "internalType": "string",
          "name": "title",
          "type": "string"
        },
        {
          "internalType": "uint256",
          "name": "amount",
          "type": "uint256"
        },
        {
          "internalType": "address",
          "name": "payer",
          "type": "address"
        },
        {
          "internalType": "address",
          "name": "payee",
          "type": "address"
        }
      ],
      "stateMutability": "view",
      "type": "function",
      "constant": true
    },
    {
      "inputs": [
        {
          "internalType": "address",
          "name": "",
          "type": "address"
        }
      ],
      "name": "withdrawals",
      "outputs": [
        {
          "internalType": "uint256",
          "name": "",
          "type": "uint256"
        }
      ],
      "stateMutability": "view",
      "type": "function",
      "constant": true
    },
    {
      "inputs": [
        {
          "internalType": "string",
          "name": "_name",
          "type": "string"
        },
        {
          "internalType": "address",
          "name": "_waddress",
          "type": "address"
        }
      ],
      "name": "createParticipant",
      "outputs": [],
      "stateMutability": "nonpayable",
      "type": "function"
    },
    {
      "inputs": [
        {
          "internalType": "string",
          "name": "_title",
          "type": "string"
        },
        {
          "internalType": "uint256",
          "name": "_amount",
          "type": "uint256"
        },
        {
          "internalType": "address[]",
          "name": "_payees",
          "type": "address[]"
        }
      ],
      "name": "createExpense",
      "outputs": [],
      "stateMutability": "nonpayable",
      "type": "function"
    },
    {
      "inputs": [
        {
          "internalType": "uint256",
          "name": "index",
          "type": "uint256"
        }
      ],
      "name": "getInvolvedParticipants",
      "outputs": [
        {
          "internalType": "address[]",
          "name": "",
          "type": "address[]"
        }
      ],
      "stateMutability": "nonpayable",
      "type": "function"
    },
    {
      "inputs": [
        {
          "internalType": "string",
          "name": "_title",
          "type": "string"
        },
        {
          "internalType": "address",
          "name": "_payee",
          "type": "address"
        },
        {
          "internalType": "uint256",
          "name": "_amount",
          "type": "uint256"
        }
      ],
      "name": "createPayment",
      "outputs": [],
      "stateMutability": "payable",
      "type": "function",
      "payable": true
    },
    {
      "inputs": [],
      "name": "getSmartContractBalance",
      "outputs": [
        {
          "internalType": "uint256",
          "name": "",
          "type": "uint256"
        }
      ],
      "stateMutability": "view",
      "type": "function",
      "constant": true
    },
    {
      "inputs": [
        {
          "internalType": "uint256",
          "name": "indexExpense",
          "type": "uint256"
        }
      ],
      "name": "calculateBalance",
      "outputs": [],
      "stateMutability": "nonpayable",
      "type": "function"
    },
    {
      "inputs": [],
      "name": "withdraw",
      "outputs": [],
      "stateMutability": "payable",
      "type": "function",
      "payable": true
    }
  ],
  "bytecode": "0x6080604052600080556000600155600060025534801561001e57600080fd5b5061113e8061002e6000396000f3fe6080604052600436106100e85760003560e01c80635145cbc01161008a57806387d817891161005957806387d8178914610230578063a93c972214610260578063af4afe0a1461028d578063f8008ec9146102bc576100e8565b80635145cbc0146101c657806352e7df5d146101db57806366aeccbf146101f05780637a9262a214610210576100e8565b8063362f04c0116100c6578063362f04c01461015c5780633ccfd60b146101715780634274650d14610179578063508c9dbf146101a6576100e8565b80630937e68a146100ed57806309e69ede1461011857806332d7940814610147575b600080fd5b3480156100f957600080fd5b506101026102dc565b60405161010f919061101e565b60405180910390f35b34801561012457600080fd5b50610138610133366004610dba565b6102e2565b60405161010f93929190611027565b61015a610155366004610e41565b610399565b005b34801561016857600080fd5b5061010261050c565b61015a610512565b34801561018557600080fd5b50610199610194366004610ddc565b61057b565b60405161010f9190610fbe565b3480156101b257600080fd5b5061015a6101c1366004610ddc565b610596565b3480156101d257600080fd5b50610102610668565b3480156101e757600080fd5b5061010261066d565b3480156101fc57600080fd5b5061015a61020b366004610ea4565b610673565b34801561021c57600080fd5b5061010261022b366004610dba565b6107b9565b34801561023c57600080fd5b5061025061024b366004610ddc565b6107cb565b60405161010f9493929190611088565b34801561026c57600080fd5b5061028061027b366004610ddc565b61089a565b60405161010f9190610fd2565b34801561029957600080fd5b506102ad6102a8366004610ddc565b61091b565b60405161010f93929190611055565b3480156102c857600080fd5b5061015a6102d7366004610df4565b6109e1565b60025481565b60036020908152600091825260409182902080548351601f600260001961010060018616150201909316929092049182018490048402810184019094528084529092918391908301828280156103795780601f1061034e57610100808354040283529160200191610379565b820191906000526020600020905b81548152906001019060200180831161035c57829003601f168201915b50505050600183015460029093015491926001600160a01b031691905083565b600081116103a657600080fd5b6001600160a01b0382163314156103bc57600080fd5b336000818152600360205260409020600101546001600160a01b0316146103e257600080fd5b6001600160a01b038083166000818152600360205260409020600101549091161461040c57600080fd5b610414610b82565b5060408051608081018252848152602080820184905233928201929092526001600160a01b038416606082015260068054600181018255600091909152815180519293849360049093027ff652222313e28459528d920b65115c16c04f3efc82aaedc97be59f3f377c0d3f019261048e9284920190610bbc565b50602082810151600183810191909155604080850151600280860180546001600160a01b03199081166001600160a01b03948516179091556060909701516003909601805490971695821695909517909555835490910190925591851660009081526007909252902080548301905561050681610abb565b50505050565b60015481565b3360009081526007602052604090205461052b57600080fd5b336000818152600760205260408082208054908390559051909291670de0b6b3a7640000840280156108fc02929091818181858888f19350505050158015610577573d6000803e3d6000fd5b5050565b6004602052600090815260409020546001600160a01b031681565b6000600582815481106105a557fe5b600091825260209091206004909102016003810154909150806105c757600080fd5b6000818360010154816105d657fe5b60018501546002808701546001600160a01b03166000908152600360205260408120909101805483019055929091049250905b600385015481101561066057826003600087600301848154811061062957fe5b60009182526020808320909101546001600160a01b0316835282019290925260400190206002018054919091039055600101610609565b505050505050565b475b90565b60005481565b6000821161068057600080fd5b6000815111801561069357506014815111155b61069c57600080fd5b336000818152600360205260409020600101546001600160a01b0316146106c257600080fd5b6106cb81610b04565b6106d457600080fd5b6106dc610c3a565b5060408051608081018252848152602080820185905233928201929092526060810183905260058054600181018255600091909152815180519293849360049093027f036b6384b5eca791c62761152d0c79bb0604c104a5fb6f4eb0703f3154bb3db0019261074e9284920190610bbc565b50602082810151600183015560408301516002830180546001600160a01b0319166001600160a01b03909216919091179055606083015180516107979260038501920190610c6b565b50506005546107aa915060001901610596565b50506000805460010190555050565b60076020526000908152604090205481565b600681815481106107d857fe5b60009182526020918290206004919091020180546040805160026001841615610100026000190190931692909204601f8101859004850283018501909152808252919350918391908301828280156108715780601f1061084657610100808354040283529160200191610871565b820191906000526020600020905b81548152906001019060200180831161085457829003601f168201915b5050505060018301546002840154600390940154929390926001600160a01b0391821692501684565b6060600582815481106108a957fe5b906000526020600020906004020160030180548060200260200160405190810160405280929190818152602001828054801561090e57602002820191906000526020600020905b81546001600160a01b031681526001909101906020018083116108f0575b505050505090505b919050565b6005818154811061092857fe5b60009182526020918290206004919091020180546040805160026001841615610100026000190190931692909204601f8101859004850283018501909152808252919350918391908301828280156109c15780601f10610996576101008083540402835291602001916109c1565b820191906000526020600020905b8154815290600101906020018083116109a457829003601f168201915b5050505060018301546002909301549192916001600160a01b0316905083565b6001600160a01b038082166000818152600360205260409020600101549091161415610a0c57600080fd5b610a14610ccc565b50604080516060810182528381526001600160a01b03831660208083018290526000838501819052918252600381529290208151805192938493610a5b9284920190610bbc565b50602082810151600183810180546001600160a01b03199081166001600160a01b03948516179091556040958601516002909501949094558054600090815260049093529390912080549092169416939093179092555080548101905550565b6020808201805160608401516001600160a01b03908116600090815260039094526040808520600290810180549490940390935592519483015116835291200180549091019055565b6000805b8251811015610b4357610b2d838281518110610b2057fe5b6020026020010151610b4c565b610b3b576000915050610916565b600101610b08565b50600192915050565b6001600160a01b038082166000818152600360205260408120600101549092161415610b7a57506001610916565b506000610916565b6040518060800160405280606081526020016000815260200160006001600160a01b0316815260200160006001600160a01b031681525090565b828054600181600116156101000203166002900490600052602060002090601f016020900481019282601f10610bfd57805160ff1916838001178555610c2a565b82800160010185558215610c2a579182015b82811115610c2a578251825591602001919060010190610c0f565b50610c36929150610cf6565b5090565b6040518060800160405280606081526020016000815260200160006001600160a01b03168152602001606081525090565b828054828255906000526020600020908101928215610cc0579160200282015b82811115610cc057825182546001600160a01b0319166001600160a01b03909116178255602090920191600190910190610c8b565b50610c36929150610d10565b60405180606001604052806060815260200160006001600160a01b03168152602001600081525090565b61066a91905b80821115610c365760008155600101610cfc565b61066a91905b80821115610c365780546001600160a01b0319168155600101610d16565b80356001600160a01b0381168114610d4b57600080fd5b92915050565b600082601f830112610d61578081fd5b813567ffffffffffffffff811115610d77578182fd5b610d8a601f8201601f19166020016110c1565b9150808252836020828501011115610da157600080fd5b8060208401602084013760009082016020015292915050565b600060208284031215610dcb578081fd5b610dd58383610d34565b9392505050565b600060208284031215610ded578081fd5b5035919050565b60008060408385031215610e06578081fd5b823567ffffffffffffffff811115610e1c578182fd5b610e2885828601610d51565b925050610e388460208501610d34565b90509250929050565b600080600060608486031215610e55578081fd5b833567ffffffffffffffff811115610e6b578182fd5b610e7786828701610d51565b93505060208401356001600160a01b0381168114610e93578182fd5b929592945050506040919091013590565b600080600060608486031215610eb8578283fd5b833567ffffffffffffffff80821115610ecf578485fd5b610edb87838801610d51565b945060209150818601359350604086013581811115610ef8578384fd5b86019050601f81018713610f0a578283fd5b8035610f1d610f18826110e8565b6110c1565b81815283810190838501858402850186018b1015610f39578687fd5b8694505b83851015610f6357610f4f8b82610d34565b835260019490940193918501918501610f3d565b5080955050505050509250925092565b60008151808452815b81811015610f9857602081850181015186830182015201610f7c565b81811115610fa95782602083870101525b50601f01601f19169290920160200192915050565b6001600160a01b0391909116815260200190565b602080825282518282018190526000918401906040840190835b818110156110135783516001600160a01b0316835260209384019390920191600101610fec565b509095945050505050565b90815260200190565b60006060825261103a6060830186610f73565b6001600160a01b039490941660208301525060400152919050565b6000606082526110686060830186610f73565b6020830194909452506001600160a01b0391909116604090910152919050565b60006080825261109b6080830187610f73565b6020830195909552506001600160a01b0392831660408201529116606090910152919050565b60405181810167ffffffffffffffff811182821017156110e057600080fd5b604052919050565b600067ffffffffffffffff8211156110fe578081fd5b506020908102019056fea2646970667358221220fa0f9787ff6ca24f8f98c8c12f5b155d3e4a96bbfa4aae66c3e7109298f0200e64736f6c63430006000033",
  "source": "pragma solidity ^0.6.0;\r\npragma experimental ABIEncoderV2;\r\n\r\ncontract SplitBits {\r\n\r\n    // Our constructor\r\n    //constructor() {\r\n    //}\r\n    int public expenseCount = 0;\r\n    int public participantCount = 0;\r\n    int public paymentCount = 0;\r\n\r\n    struct Participant {\r\n        string name;\r\n        address waddress;\r\n        int balance;\r\n    }\r\n\r\n    struct Expense {\r\n        string title;\r\n        uint amount;\r\n        address payer; \r\n        address[] payees; \r\n    }\r\n\r\n    struct Payment {\r\n        string title;\r\n        uint amount;\r\n        address payer;\r\n        address payee;\r\n    }\r\n\r\n    mapping(address => Participant) public participants;\r\n    mapping(int => address) public participantsAddresses;\r\n\r\n    Expense[] public expenses;\r\n\r\n    Payment[] public payments;\r\n\r\n    function createParticipant(string memory _name, address _waddress) public {\r\n        require(_waddress != participants[_waddress].waddress);\r\n        Participant memory participant = Participant({name: _name, waddress: _waddress, balance: 0});\r\n        participants[_waddress] = participant;\r\n        participantsAddresses[participantCount] = _waddress;\r\n        participantCount++;\r\n    }\r\n\r\n    function createExpense(string memory _title, uint _amount, address[] memory _payees) public {\r\n        require(_amount > 0);\r\n        require(_payees.length > 0 && _payees.length <= 20);\r\n        require(msg.sender == participants[msg.sender].waddress);\r\n        require(isParticipants(_payees));\r\n        Expense memory expense = Expense(_title, _amount, msg.sender, _payees);\r\n        expenses.push(expense);\r\n        calculateBalance((expenses.length)-1);\r\n        expenseCount++;\r\n    }\r\n\r\n    function getInvolvedParticipants(uint index) public returns (address [] memory){\r\n        return expenses[index].payees;\r\n    }\r\n\r\n    mapping(address => uint) public withdrawals;\r\n    \r\n    function createPayment(string memory _title, address _payee, uint _amount) public payable {   \r\n        require(_amount > 0);\r\n        require(_payee != msg.sender);\r\n        require(msg.sender == participants[msg.sender].waddress);\r\n        require(_payee == participants[_payee].waddress);\r\n        Payment memory payment = Payment({title: _title, amount: _amount, payer: msg.sender, payee: _payee});\r\n        payments.push(payment);\r\n        paymentCount++;\r\n        withdrawals[_payee] += _amount;\r\n        syncBalancePayment(payment);\r\n    }\r\n\r\n    function getSmartContractBalance() external view returns(uint) {\r\n        return address(this).balance;\r\n    }\r\n\r\n    function syncBalancePayment(Payment memory payment) internal {\r\n        participants[payment.payee].balance -= int(payment.amount);\r\n        participants[payment.payer].balance += int(payment.amount);\r\n    }\r\n\r\n\r\n    function calculateBalance(uint indexExpense) public {\r\n        Expense storage expense = expenses[indexExpense];\r\n        uint contributors = expense.payees.length;\r\n        require(contributors > 0);\r\n        int _portion = int(expense.amount / contributors);\r\n        int _amount = int(expense.amount);\r\n        \r\n        participants[expense.payer].balance += _amount;\r\n        for (uint i = 0; i < expense.payees.length; i++) {\r\n            participants[expense.payees[i]].balance -= _portion;  \r\n        }       \r\n    }\r\n\r\n    function withdraw() payable public  {\r\n        require(withdrawals[msg.sender] > 0);\r\n        uint amount = withdrawals[msg.sender];\r\n        withdrawals[msg.sender] = 0;\r\n        payable(msg.sender).transfer(amount*1000000000000000000 );\r\n    }\r\n\r\n    function isParticipants(address[] memory list) internal returns (bool) {\r\n        for (uint i = 0; i < list.length; i++) {\r\n            if (!isParticipant(list[i])) {\r\n                return false;\r\n            }\r\n        }\r\n        return true;\r\n    }\r\n\r\n    /// @notice Check if each address of the list is registred as participant\r\n    /// @param _waddress the address to check \r\n    /// @return true if all the list is registred as participant, false otherwise\r\n    function isParticipant(address _waddress) internal returns (bool) {\r\n        if (_waddress == participants[_waddress].waddress) {\r\n            return true;\r\n        }else {\r\n            return false;\r\n        }\r\n    }\r\n\r\n}",
  "sourcePath": "D:\\SHUBH\\PROJECTS\\Blockchain\\SplitBits\\contracts\\SplitBits.sol",
  "compiler": {
    "name": "solc",
    "version": "0.6.0+commit.26b70077.Emscripten.clang"
  },
  "schemaVersion": "3.4.10",
  "updatedAt": "2022-11-05T13:50:42.550Z",
  "networkType": "ethereum",
  "devdoc": {
    "methods": {}
  },
  "userdoc": {
    "methods": {}
  }
}