{
  "contractName": "SplitBits",
  "abi": [
    {
      "constant": true,
      "inputs": [],
      "name": "expenseCount",
      "outputs": [
        {
          "name": "",
          "type": "int256"
        }
      ],
      "payable": false,
      "stateMutability": "view",
      "type": "function",
      "signature": "0x52e7df5d"
    },
    {
      "constant": true,
      "inputs": [
        {
          "name": "",
          "type": "int256"
        }
      ],
      "name": "expenses",
      "outputs": [
        {
          "name": "id",
          "type": "int256"
        },
        {
          "name": "title",
          "type": "string"
        },
        {
          "name": "amount",
          "type": "int256"
        },
        {
          "name": "paid_to",
          "type": "string"
        }
      ],
      "payable": false,
      "stateMutability": "view",
      "type": "function",
      "signature": "0x99a14713"
    },
    {
      "inputs": [],
      "payable": false,
      "stateMutability": "nonpayable",
      "type": "constructor",
      "signature": "constructor"
    },
    {
      "anonymous": false,
      "inputs": [
        {
          "indexed": false,
          "name": "id",
          "type": "int256"
        },
        {
          "indexed": false,
          "name": "title",
          "type": "string"
        },
        {
          "indexed": false,
          "name": "amount",
          "type": "int256"
        },
        {
          "indexed": false,
          "name": "paid_to",
          "type": "string"
        }
      ],
      "name": "ExpenseCreated",
      "type": "event",
      "signature": "0x4e3e1781bffd7fc623f021e7bf163b373b02cf1d240c73d30871522d331c543e"
    },
    {
      "constant": false,
      "inputs": [
        {
          "name": "_title",
          "type": "string"
        },
        {
          "name": "amount",
          "type": "int256"
        },
        {
          "name": "paid_to",
          "type": "string"
        }
      ],
      "name": "createExpense",
      "outputs": [],
      "payable": false,
      "stateMutability": "nonpayable",
      "type": "function",
      "signature": "0xd734fe78"
    }
  ],
  "bytecode": "0x60806040526000805534801561001457600080fd5b5061009a6040805190810160405280600481526020017f466f6f6400000000000000000000000000000000000000000000000000000000815250600a6040805190810160405280600781526020017f486172736869740000000000000000000000000000000000000000000000000081525061009f640100000000026401000000009004565b6102cf565b6000805460019081018083556040805160808101825282815260208082018981528284018990526060830188905293865284815291909420845181559151805192936100f393908501929190910190610234565b506040820151600282015560608201518051610119916003840191602090910190610234565b509050507f4e3e1781bffd7fc623f021e7bf163b373b02cf1d240c73d30871522d331c543e600054848484604051808581526020018060200184815260200180602001838103835286818151815260200191508051906020019080838360005b83811015610191578181015183820152602001610179565b50505050905090810190601f1680156101be5780820380516001836020036101000a031916815260200191505b50838103825284518152845160209182019186019080838360005b838110156101f15781810151838201526020016101d9565b50505050905090810190601f16801561021e5780820380516001836020036101000a031916815260200191505b50965050505050505060405180910390a1505050565b828054600181600116156101000203166002900490600052602060002090601f016020900481019282601f1061027557805160ff19168380011785556102a2565b828001600101855582156102a2579182015b828111156102a2578251825591602001919060010190610287565b506102ae9291506102b2565b5090565b6102cc91905b808211156102ae57600081556001016102b8565b90565b61067c806102de6000396000f3fe6080604052600436106100565763ffffffff7c010000000000000000000000000000000000000000000000000000000060003504166352e7df5d811461005b57806399a1471314610082578063d734fe7814610198575b600080fd5b34801561006757600080fd5b506100706102dc565b60408051918252519081900360200190f35b34801561008e57600080fd5b506100ac600480360360208110156100a557600080fd5b50356102e2565b604051808581526020018060200184815260200180602001838103835286818151815260200191508051906020019080838360005b838110156100f95781810151838201526020016100e1565b50505050905090810190601f1680156101265780820380516001836020036101000a031916815260200191505b50838103825284518152845160209182019186019080838360005b83811015610159578181015183820152602001610141565b50505050905090810190601f1680156101865780820380516001836020036101000a031916815260200191505b50965050505050505060405180910390f35b3480156101a457600080fd5b506102da600480360360608110156101bb57600080fd5b8101906020810181356401000000008111156101d657600080fd5b8201836020820111156101e857600080fd5b8035906020019184600183028401116401000000008311171561020a57600080fd5b91908080601f0160208091040260200160405190810160405280939291908181526020018383808284376000920191909152509295843595909490935060408101925060200135905064010000000081111561026557600080fd5b82018360208201111561027757600080fd5b8035906020019184600183028401116401000000008311171561029957600080fd5b91908080601f016020809104026020016040519081016040528093929190818152602001838380828437600092019190915250929550610420945050505050565b005b60005481565b600160208181526000928352604092839020805481840180548651600296821615610100026000190190911695909504601f8101859004850286018501909652858552909491939290919083018282801561037e5780601f106103535761010080835404028352916020019161037e565b820191906000526020600020905b81548152906001019060200180831161036157829003601f168201915b505050506002838101546003850180546040805160206001841615610100026000190190931695909504601f8101839004830286018301909152808552959692959294509091908301828280156104165780601f106103eb57610100808354040283529160200191610416565b820191906000526020600020905b8154815290600101906020018083116103f957829003601f168201915b5050505050905084565b600080546001908101808355604080516080810182528281526020808201898152828401899052606083018890529386528481529190942084518155915180519293610474939085019291909101906105b5565b50604082015160028201556060820151805161049a9160038401916020909101906105b5565b509050507f4e3e1781bffd7fc623f021e7bf163b373b02cf1d240c73d30871522d331c543e600054848484604051808581526020018060200184815260200180602001838103835286818151815260200191508051906020019080838360005b838110156105125781810151838201526020016104fa565b50505050905090810190601f16801561053f5780820380516001836020036101000a031916815260200191505b50838103825284518152845160209182019186019080838360005b8381101561057257818101518382015260200161055a565b50505050905090810190601f16801561059f5780820380516001836020036101000a031916815260200191505b50965050505050505060405180910390a1505050565b828054600181600116156101000203166002900490600052602060002090601f016020900481019282601f106105f657805160ff1916838001178555610623565b82800160010185558215610623579182015b82811115610623578251825591602001919060010190610608565b5061062f929150610633565b5090565b61064d91905b8082111561062f5760008155600101610639565b9056fea165627a7a72305820ee0c71cec396d80b9fdaa833fd406af6d35ad6ce21dfc325ce7db21140421aa20029",
  "source": "pragma solidity ^0.5.0;\r\n\r\ncontract SplitBits {\r\n  int public expenseCount = 0;\r\n\r\n  struct Expense {\r\n    int id;\r\n    string title;\r\n    int amount;\r\n    string paid_to;\r\n  }\r\n\r\n  mapping(int => Expense) public expenses;\r\n\r\n  event ExpenseCreated(\r\n    int id,\r\n    string title,\r\n    int amount,\r\n    string paid_to\r\n  );\r\n\r\n  \r\n  constructor() public {\r\n    createExpense(\"Food\", 10, \"Harshit\");\r\n  }\r\n\r\n  function createExpense(string memory _title, int amount, string memory paid_to) public {\r\n    expenseCount ++;\r\n    expenses[expenseCount] = Expense(expenseCount, _title, amount, paid_to);\r\n    emit ExpenseCreated(expenseCount, _title, amount, paid_to);\r\n  }\r\n\r\n \r\n\r\n}",
  "sourcePath": "D:/SHUBH/PROJECTS/Blockchain/SplitBits/contracts/SplitBits.sol",
  "compiler": {
    "name": "solc",
    "version": "0.5.0+commit.1d4f565a.Emscripten.clang"
  },
  "schemaVersion": "3.0.1",
  "updatedAt": "2022-10-08T09:02:18.937Z",
  "devdoc": {
    "methods": {}
  },
  "userdoc": {
    "methods": {}
  }
}