{
  "contractName": "SplitBits",
  "abi": [
    {
      "constant": true,
      "inputs": [
        {
          "name": "",
          "type": "address"
        }
      ],
      "name": "participants",
      "outputs": [
        {
          "name": "name",
          "type": "string"
        },
        {
          "name": "waddress",
          "type": "address"
        },
        {
          "name": "balance",
          "type": "int256"
        }
      ],
      "payable": false,
      "stateMutability": "view",
      "type": "function",
      "signature": "0x09e69ede"
    },
    {
      "constant": true,
      "inputs": [],
      "name": "participantCount",
      "outputs": [
        {
          "name": "",
          "type": "int256"
        }
      ],
      "payable": false,
      "stateMutability": "view",
      "type": "function",
      "signature": "0x362f04c0"
    },
    {
      "constant": true,
      "inputs": [
        {
          "name": "",
          "type": "int256"
        }
      ],
      "name": "participantsAddresses",
      "outputs": [
        {
          "name": "",
          "type": "address"
        }
      ],
      "payable": false,
      "stateMutability": "view",
      "type": "function",
      "signature": "0x4274650d"
    },
    {
      "constant": true,
      "inputs": [],
      "name": "expenseCount",
      "outputs": [
        {
          "name": "",
          "type": "int256"
        }
      ],
      "payable": false,
      "stateMutability": "view",
      "type": "function",
      "signature": "0x52e7df5d"
    },
    {
      "constant": true,
      "inputs": [
        {
          "name": "",
          "type": "address"
        }
      ],
      "name": "withdrawals",
      "outputs": [
        {
          "name": "",
          "type": "uint256"
        }
      ],
      "payable": false,
      "stateMutability": "view",
      "type": "function",
      "signature": "0x7a9262a2"
    },
    {
      "constant": true,
      "inputs": [
        {
          "name": "",
          "type": "uint256"
        }
      ],
      "name": "payments",
      "outputs": [
        {
          "name": "title",
          "type": "string"
        },
        {
          "name": "amount",
          "type": "uint256"
        },
        {
          "name": "payer",
          "type": "address"
        },
        {
          "name": "payee",
          "type": "address"
        }
      ],
      "payable": false,
      "stateMutability": "view",
      "type": "function",
      "signature": "0x87d81789"
    },
    {
      "constant": true,
      "inputs": [
        {
          "name": "",
          "type": "uint256"
        }
      ],
      "name": "expenses",
      "outputs": [
        {
          "name": "title",
          "type": "string"
        },
        {
          "name": "amount",
          "type": "uint256"
        },
        {
          "name": "payer",
          "type": "address"
        }
      ],
      "payable": false,
      "stateMutability": "view",
      "type": "function",
      "signature": "0xaf4afe0a"
    },
    {
      "constant": false,
      "inputs": [
        {
          "name": "_name",
          "type": "string"
        },
        {
          "name": "_waddress",
          "type": "address"
        }
      ],
      "name": "createParticipant",
      "outputs": [],
      "payable": false,
      "stateMutability": "nonpayable",
      "type": "function",
      "signature": "0xf8008ec9"
    },
    {
      "constant": false,
      "inputs": [
        {
          "name": "_title",
          "type": "string"
        },
        {
          "name": "_amount",
          "type": "uint256"
        },
        {
          "name": "_payees",
          "type": "address[]"
        }
      ],
      "name": "createExpense",
      "outputs": [],
      "payable": false,
      "stateMutability": "nonpayable",
      "type": "function",
      "signature": "0x66aeccbf"
    },
    {
      "constant": false,
      "inputs": [
        {
          "name": "_title",
          "type": "string"
        },
        {
          "name": "_payee",
          "type": "address"
        }
      ],
      "name": "createPayment",
      "outputs": [],
      "payable": true,
      "stateMutability": "payable",
      "type": "function",
      "signature": "0xf8164e59"
    },
    {
      "constant": false,
      "inputs": [
        {
          "name": "indexExpense",
          "type": "uint256"
        }
      ],
      "name": "calculateBalance",
      "outputs": [],
      "payable": false,
      "stateMutability": "nonpayable",
      "type": "function",
      "signature": "0x508c9dbf"
    },
    {
      "constant": false,
      "inputs": [],
      "name": "withdraw",
      "outputs": [],
      "payable": false,
      "stateMutability": "nonpayable",
      "type": "function",
      "signature": "0x3ccfd60b"
    }
  ],
  "bytecode": "0x608060405260008055600060015534801561001957600080fd5b506110b6806100296000396000f3fe6080604052600436106100b95763ffffffff7c010000000000000000000000000000000000000000000000000000000060003504166309e69ede81146100be578063362f04c0146101895780633ccfd60b146101b05780634274650d146101c7578063508c9dbf1461020d57806352e7df5d1461023757806366aeccbf1461024c5780637a9262a21461038b57806387d81789146103be578063af4afe0a14610499578063f8008ec91461051d578063f8164e59146105db575b600080fd5b3480156100ca57600080fd5b506100f1600480360360208110156100e157600080fd5b5035600160a060020a031661068c565b604051808060200184600160a060020a0316600160a060020a03168152602001838152602001828103825285818151815260200191508051906020019080838360005b8381101561014c578181015183820152602001610134565b50505050905090810190601f1680156101795780820380516001836020036101000a031916815260200191505b5094505050505060405180910390f35b34801561019557600080fd5b5061019e61073d565b60408051918252519081900360200190f35b3480156101bc57600080fd5b506101c5610743565b005b3480156101d357600080fd5b506101f1600480360360208110156101ea57600080fd5b50356107a2565b60408051600160a060020a039092168252519081900360200190f35b34801561021957600080fd5b506101c56004803603602081101561023057600080fd5b50356107bd565b34801561024357600080fd5b5061019e610897565b34801561025857600080fd5b506101c56004803603606081101561026f57600080fd5b81019060208101813564010000000081111561028a57600080fd5b82018360208201111561029c57600080fd5b803590602001918460018302840111640100000000831117156102be57600080fd5b91908080601f0160208091040260200160405190810160405280939291908181526020018383808284376000920191909152509295843595909490935060408101925060200135905064010000000081111561031957600080fd5b82018360208201111561032b57600080fd5b8035906020019184602083028401116401000000008311171561034d57600080fd5b91908080602002602001604051908101604052809392919081815260200183836020028082843760009201919091525092955061089d945050505050565b34801561039757600080fd5b5061019e600480360360208110156103ae57600080fd5b5035600160a060020a03166109f7565b3480156103ca57600080fd5b506103e8600480360360208110156103e157600080fd5b5035610a09565b604051808060200185815260200184600160a060020a0316600160a060020a0316815260200183600160a060020a0316600160a060020a03168152602001828103825286818151815260200191508051906020019080838360005b8381101561045b578181015183820152602001610443565b50505050905090810190601f1680156104885780820380516001836020036101000a031916815260200191505b509550505050505060405180910390f35b3480156104a557600080fd5b506104c3600480360360208110156104bc57600080fd5b5035610ad9565b604051808060200184815260200183600160a060020a0316600160a060020a03168152602001828103825285818151815260200191508051906020019080838360008381101561014c578181015183820152602001610134565b34801561052957600080fd5b506101c56004803603604081101561054057600080fd5b81019060208101813564010000000081111561055b57600080fd5b82018360208201111561056d57600080fd5b8035906020019184600183028401116401000000008311171561058f57600080fd5b91908080601f01602080910402602001604051908101604052809392919081815260200183838082843760009201919091525092955050509035600160a060020a03169150610ba09050565b6101c5600480360360408110156105f157600080fd5b81019060208101813564010000000081111561060c57600080fd5b82018360208201111561061e57600080fd5b8035906020019184600183028401116401000000008311171561064057600080fd5b91908080601f01602080910402602001604051908101604052809392919081815260200183838082843760009201919091525092955050509035600160a060020a03169150610c879050565b600260208181526000928352604092839020805484516001821615610100026000190190911693909304601f810183900483028401830190945283835292839183018282801561071d5780601f106106f25761010080835404028352916020019161071d565b820191906000526020600020905b81548152906001019060200180831161070057829003601f168201915b5050505060018301546002909301549192600160a060020a031691905083565b60015481565b336000908152600660205260408120541161075d57600080fd5b33600081815260066020526040808220805490839055905190929183156108fc02918491818181858888f1935050505015801561079e573d6000803e3d6000fd5b5050565b600360205260009081526040902054600160a060020a031681565b60006004828154811015156107ce57fe5b6000918252602082206003600490920201908101549092509081116107f257600080fd5b600081836001015481151561080357fe5b6001850154600280870154600160a060020a03166000908152602082905260408120909101805483019055929091049250905b600385015481101561088f578260026000876003018481548110151561085857fe5b6000918252602080832090910154600160a060020a0316835282019290925260400190206002018054919091039055600101610836565b505050505050565b60005481565b600082116108aa57600080fd5b600081511180156108bd57506014815111155b15156108c857600080fd5b33600081815260026020526040902060010154600160a060020a0316146108ee57600080fd5b6108f781610dff565b151561090257600080fd5b61090a610ecc565b506040805160808101825284815260208082018590523392820192909252606081018390526004805460018101808355600083905283518051949591948694939093027f8a35acfbc15ff81a39ae7d344fd709f28e8600b4aa8c65c6b64bfe7fe36bd19b019261097d9284920190610efe565b506020828101516001830155604083015160028301805473ffffffffffffffffffffffffffffffffffffffff1916600160a060020a03909216919091179055606083015180516109d39260038501920190610f7c565b50506004546109e892506000190190506107bd565b50506000805460010190555050565b60066020526000908152604090205481565b6005805482908110610a1757fe5b60009182526020918290206004919091020180546040805160026001841615610100026000190190931692909204601f810185900485028301850190915280825291935091839190830182828015610ab05780601f10610a8557610100808354040283529160200191610ab0565b820191906000526020600020905b815481529060010190602001808311610a9357829003601f168201915b505050506001830154600284015460039094015492939092600160a060020a0391821692501684565b6004805482908110610ae757fe5b60009182526020918290206004919091020180546040805160026001841615610100026000190190931692909204601f810185900485028301850190915280825291935091839190830182828015610b805780601f10610b5557610100808354040283529160200191610b80565b820191906000526020600020905b815481529060010190602001808311610b6357829003601f168201915b505050506001830154600290930154919291600160a060020a0316905083565b600160a060020a038082166000818152600260205260409020600101549091161415610bcb57600080fd5b610bd3610fea565b5060408051606081018252838152600160a060020a03831660208083018290526000838501819052918252600281529290208151805192938493610c1a9284920190610efe565b506020828101516001838101805473ffffffffffffffffffffffffffffffffffffffff19908116600160a060020a03948516179091556040958601516002909501949094558054600090815260039093529390912080549092169416939093179092555080548101905550565b60003411610c9457600080fd5b600160a060020a038116331415610caa57600080fd5b33600081815260026020526040902060010154600160a060020a031614610cd057600080fd5b600160a060020a0380821660008181526002602052604090206001015490911614610cfa57600080fd5b610d02611015565b5060408051608081018252838152346020808301919091523392820192909252600160a060020a038316606082015260058054600181018083556000929092528251805193949293859360049093027f036b6384b5eca791c62761152d0c79bb0604c104a5fb6f4eb0703f3154bb3db00192610d82928492910190610efe565b50602082810151600183015560408084015160028401805473ffffffffffffffffffffffffffffffffffffffff19908116600160a060020a03938416179091556060909501516003909401805490951693811693909317909355908516600090815260069091522080543401905550610dfa81610e4f565b505050565b6000805b8251811015610e4457610e2c8382815181101515610e1d57fe5b90602001906020020151610e96565b1515610e3c576000915050610e4a565b600101610e03565b50600190505b919050565b602080820180516060840151600160a060020a0390811660009081526002948590526040808220860180549490940390935592519482015116825290200180549091019055565b600160a060020a038082166000818152600260205260408120600101549092161415610ec457506001610e4a565b506000610e4a565b60806040519081016040528060608152602001600081526020016000600160a060020a03168152602001606081525090565b828054600181600116156101000203166002900490600052602060002090601f016020900481019282601f10610f3f57805160ff1916838001178555610f6c565b82800160010185558215610f6c579182015b82811115610f6c578251825591602001919060010190610f51565b50610f7892915061103c565b5090565b828054828255906000526020600020908101928215610fde579160200282015b82811115610fde578251825473ffffffffffffffffffffffffffffffffffffffff1916600160a060020a03909116178255602090920191600190910190610f9c565b50610f78929150611059565b606060405190810160405280606081526020016000600160a060020a03168152602001600081525090565b60408051608081018252606080825260006020830181905292820183905281019190915290565b61105691905b80821115610f785760008155600101611042565b90565b61105691905b80821115610f7857805473ffffffffffffffffffffffffffffffffffffffff1916815560010161105f56fea165627a7a7230582057f4fa60ec79106704bceb39eab9779d99d1fa17569b17c3e9bc1c51233efb920029",
  "source": "pragma solidity ^0.5.0;\r\n\r\ncontract SplitBits {\r\n\r\n    // Our constructor\r\n    //constructor() {\r\n    //}\r\n    int public expenseCount = 0;\r\n    int public participantCount = 0;\r\n\r\n    struct Participant {\r\n        string name;\r\n        address waddress;\r\n        int balance;\r\n    }\r\n\r\n    struct Expense {\r\n        string title;\r\n        uint amount;\r\n        address payer; \r\n        address[] payees; \r\n    }\r\n\r\n    struct Payment {\r\n        string title;\r\n        uint amount;\r\n        address payer;\r\n        address payee;\r\n    }\r\n\r\n    mapping(address => Participant) public participants;\r\n    mapping(int => address) public participantsAddresses;\r\n\r\n    Expense[] public expenses;\r\n\r\n    Payment[] public payments;\r\n\r\n    function createParticipant(string memory _name, address _waddress) public {\r\n        require(_waddress != participants[_waddress].waddress);\r\n        Participant memory participant = Participant({name: _name, waddress: _waddress, balance: 0});\r\n        participants[_waddress] = participant;\r\n        participantsAddresses[participantCount] = _waddress;\r\n        participantCount++;\r\n    }\r\n\r\n    function createExpense(string memory _title, uint _amount, address[] memory _payees) public {\r\n        require(_amount > 0);\r\n        require(_payees.length > 0 && _payees.length <= 20);\r\n        require(msg.sender == participants[msg.sender].waddress);\r\n        require(isParticipants(_payees));\r\n        Expense memory expense = Expense(_title, _amount, msg.sender, _payees);\r\n        expenses.push(expense);\r\n        calculateBalance((expenses.length)-1);\r\n        expenseCount++;\r\n    }\r\n\r\n    mapping(address => uint) public withdrawals;\r\n    \r\n    function createPayment(string memory _title, address _payee) public payable {   \r\n        require(msg.value > 0);\r\n        require(_payee != msg.sender);\r\n        require(msg.sender == participants[msg.sender].waddress);\r\n        require(_payee == participants[_payee].waddress);\r\n        Payment memory payment = Payment({title: _title, amount: msg.value, payer: msg.sender, payee: _payee});\r\n        payments.push(payment);\r\n        withdrawals[_payee] += msg.value;\r\n        syncBalancePayment(payment);\r\n    }\r\n\r\n    function syncBalancePayment(Payment memory payment) internal {\r\n        participants[payment.payee].balance -= int(payment.amount);\r\n        participants[payment.payer].balance += int(payment.amount);\r\n    }\r\n\r\n\r\n    function calculateBalance(uint indexExpense) public {\r\n        Expense storage expense = expenses[indexExpense];\r\n        uint contributors = expense.payees.length;\r\n        require(contributors > 0);\r\n        int _portion = int(expense.amount / contributors);\r\n        int _amount = int(expense.amount);\r\n        \r\n        participants[expense.payer].balance += _amount;\r\n        for (uint i = 0; i < expense.payees.length; i++) {\r\n            participants[expense.payees[i]].balance -= _portion;  \r\n        }       \r\n    }\r\n\r\n    function withdraw() public  {\r\n        require(withdrawals[msg.sender] > 0);\r\n        uint amount = withdrawals[msg.sender];\r\n        withdrawals[msg.sender] = 0;\r\n        msg.sender.transfer(amount);\r\n    }\r\n\r\n    function isParticipants(address[] memory list) internal returns (bool) {\r\n        for (uint i = 0; i < list.length; i++) {\r\n            if (!isParticipant(list[i])) {\r\n                return false;\r\n            }\r\n        }\r\n        return true;\r\n    }\r\n\r\n    /// @notice Check if each address of the list is registred as participant\r\n    /// @param _waddress the address to check \r\n    /// @return true if all the list is registred as participant, false otherwise\r\n    function isParticipant(address _waddress) internal returns (bool) {\r\n        if (_waddress == participants[_waddress].waddress) {\r\n            return true;\r\n        }else {\r\n            return false;\r\n        }\r\n    }\r\n\r\n}",
  "sourcePath": "D:/SHUBH/PROJECTS/Blockchain/SplitBits/contracts/SplitBits.sol",
  "compiler": {
    "name": "solc",
    "version": "0.5.0+commit.1d4f565a.Emscripten.clang"
  },
  "schemaVersion": "3.0.1",
  "updatedAt": "2022-10-31T18:19:44.376Z",
  "devdoc": {
    "methods": {}
  },
  "userdoc": {
    "methods": {}
  }
}