{
  "contractName": "SplitBits",
  "abi": [
    {
      "constant": true,
      "inputs": [],
      "name": "paymentCount",
      "outputs": [
        {
          "name": "",
          "type": "int256"
        }
      ],
      "payable": false,
      "stateMutability": "view",
      "type": "function",
      "signature": "0x0937e68a"
    },
    {
      "constant": true,
      "inputs": [
        {
          "name": "",
          "type": "address"
        }
      ],
      "name": "participants",
      "outputs": [
        {
          "name": "name",
          "type": "string"
        },
        {
          "name": "waddress",
          "type": "address"
        },
        {
          "name": "balance",
          "type": "int256"
        }
      ],
      "payable": false,
      "stateMutability": "view",
      "type": "function",
      "signature": "0x09e69ede"
    },
    {
      "constant": true,
      "inputs": [],
      "name": "participantCount",
      "outputs": [
        {
          "name": "",
          "type": "int256"
        }
      ],
      "payable": false,
      "stateMutability": "view",
      "type": "function",
      "signature": "0x362f04c0"
    },
    {
      "constant": true,
      "inputs": [
        {
          "name": "",
          "type": "int256"
        }
      ],
      "name": "participantsAddresses",
      "outputs": [
        {
          "name": "",
          "type": "address"
        }
      ],
      "payable": false,
      "stateMutability": "view",
      "type": "function",
      "signature": "0x4274650d"
    },
    {
      "constant": true,
      "inputs": [],
      "name": "expenseCount",
      "outputs": [
        {
          "name": "",
          "type": "int256"
        }
      ],
      "payable": false,
      "stateMutability": "view",
      "type": "function",
      "signature": "0x52e7df5d"
    },
    {
      "constant": true,
      "inputs": [
        {
          "name": "",
          "type": "address"
        }
      ],
      "name": "withdrawals",
      "outputs": [
        {
          "name": "",
          "type": "uint256"
        }
      ],
      "payable": false,
      "stateMutability": "view",
      "type": "function",
      "signature": "0x7a9262a2"
    },
    {
      "constant": true,
      "inputs": [
        {
          "name": "",
          "type": "uint256"
        }
      ],
      "name": "payments",
      "outputs": [
        {
          "name": "title",
          "type": "string"
        },
        {
          "name": "amount",
          "type": "uint256"
        },
        {
          "name": "payer",
          "type": "address"
        },
        {
          "name": "payee",
          "type": "address"
        }
      ],
      "payable": false,
      "stateMutability": "view",
      "type": "function",
      "signature": "0x87d81789"
    },
    {
      "constant": true,
      "inputs": [
        {
          "name": "",
          "type": "uint256"
        }
      ],
      "name": "expenses",
      "outputs": [
        {
          "name": "title",
          "type": "string"
        },
        {
          "name": "amount",
          "type": "uint256"
        },
        {
          "name": "payer",
          "type": "address"
        }
      ],
      "payable": false,
      "stateMutability": "view",
      "type": "function",
      "signature": "0xaf4afe0a"
    },
    {
      "constant": false,
      "inputs": [
        {
          "name": "_name",
          "type": "string"
        },
        {
          "name": "_waddress",
          "type": "address"
        }
      ],
      "name": "createParticipant",
      "outputs": [],
      "payable": false,
      "stateMutability": "nonpayable",
      "type": "function",
      "signature": "0xf8008ec9"
    },
    {
      "constant": false,
      "inputs": [
        {
          "name": "_title",
          "type": "string"
        },
        {
          "name": "_amount",
          "type": "uint256"
        },
        {
          "name": "_payees",
          "type": "address[]"
        }
      ],
      "name": "createExpense",
      "outputs": [],
      "payable": false,
      "stateMutability": "nonpayable",
      "type": "function",
      "signature": "0x66aeccbf"
    },
    {
      "constant": false,
      "inputs": [
        {
          "name": "_title",
          "type": "string"
        },
        {
          "name": "_payee",
          "type": "address"
        },
        {
          "name": "_amount",
          "type": "uint256"
        }
      ],
      "name": "createPayment",
      "outputs": [],
      "payable": true,
      "stateMutability": "payable",
      "type": "function",
      "signature": "0x32d79408"
    },
    {
      "constant": false,
      "inputs": [
        {
          "name": "indexExpense",
          "type": "uint256"
        }
      ],
      "name": "calculateBalance",
      "outputs": [],
      "payable": false,
      "stateMutability": "nonpayable",
      "type": "function",
      "signature": "0x508c9dbf"
    },
    {
      "constant": false,
      "inputs": [],
      "name": "withdraw",
      "outputs": [],
      "payable": true,
      "stateMutability": "payable",
      "type": "function",
      "signature": "0x3ccfd60b"
    }
  ],
  "bytecode": "0x6080604052600080556000600155600060025534801561001e57600080fd5b506110ea8061002e6000396000f3fe6080604052600436106100c45763ffffffff7c01000000000000000000000000000000000000000000000000000000006000350416630937e68a81146100c957806309e69ede146100f057806332d79408146101bb578063362f04c0146102715780633ccfd60b146102865780634274650d1461028e578063508c9dbf146102d457806352e7df5d146102fe57806366aeccbf146103135780637a9262a21461045257806387d8178914610485578063af4afe0a14610560578063f8008ec9146105e4575b600080fd5b3480156100d557600080fd5b506100de6106a2565b60408051918252519081900360200190f35b3480156100fc57600080fd5b506101236004803603602081101561011357600080fd5b5035600160a060020a03166106a8565b604051808060200184600160a060020a0316600160a060020a03168152602001838152602001828103825285818151815260200191508051906020019080838360005b8381101561017e578181015183820152602001610166565b50505050905090810190601f1680156101ab5780820380516001836020036101000a031916815260200191505b5094505050505060405180910390f35b61026f600480360360608110156101d157600080fd5b8101906020810181356401000000008111156101ec57600080fd5b8201836020820111156101fe57600080fd5b8035906020019184600183028401116401000000008311171561022057600080fd5b91908080601f01602080910402602001604051908101604052809392919081815260200183838082843760009201919091525092955050600160a060020a03833516935050506020013561075f565b005b34801561027d57600080fd5b506100de6108e4565b61026f6108ea565b34801561029a57600080fd5b506102b8600480360360208110156102b157600080fd5b5035610949565b60408051600160a060020a039092168252519081900360200190f35b3480156102e057600080fd5b5061026f600480360360208110156102f757600080fd5b5035610964565b34801561030a57600080fd5b506100de610a3e565b34801561031f57600080fd5b5061026f6004803603606081101561033657600080fd5b81019060208101813564010000000081111561035157600080fd5b82018360208201111561036357600080fd5b8035906020019184600183028401116401000000008311171561038557600080fd5b91908080601f016020809104026020016040519081016040528093929190818152602001838380828437600092019190915250929584359590949093506040810192506020013590506401000000008111156103e057600080fd5b8201836020820111156103f257600080fd5b8035906020019184602083028401116401000000008311171561041457600080fd5b919080806020026020016040519081016040528093929190818152602001838360200280828437600092019190915250929550610a44945050505050565b34801561045e57600080fd5b506100de6004803603602081101561047557600080fd5b5035600160a060020a0316610ba1565b34801561049157600080fd5b506104af600480360360208110156104a857600080fd5b5035610bb3565b604051808060200185815260200184600160a060020a0316600160a060020a0316815260200183600160a060020a0316600160a060020a03168152602001828103825286818151815260200191508051906020019080838360005b8381101561052257818101518382015260200161050a565b50505050905090810190601f16801561054f5780820380516001836020036101000a031916815260200191505b509550505050505060405180910390f35b34801561056c57600080fd5b5061058a6004803603602081101561058357600080fd5b5035610c83565b604051808060200184815260200183600160a060020a0316600160a060020a03168152602001828103825285818151815260200191508051906020019080838360008381101561017e578181015183820152602001610166565b3480156105f057600080fd5b5061026f6004803603604081101561060757600080fd5b81019060208101813564010000000081111561062257600080fd5b82018360208201111561063457600080fd5b8035906020019184600183028401116401000000008311171561065657600080fd5b91908080601f01602080910402602001604051908101604052809392919081815260200183838082843760009201919091525092955050509035600160a060020a03169150610d4a9050565b60025481565b60036020908152600091825260409182902080548351601f6002600019610100600186161502019093169290920491820184900484028101840190945280845290929183919083018282801561073f5780601f106107145761010080835404028352916020019161073f565b820191906000526020600020905b81548152906001019060200180831161072257829003601f168201915b5050505060018301546002909301549192600160a060020a031691905083565b6000811161076c57600080fd5b600160a060020a03821633141561078257600080fd5b33600081815260036020526040902060010154600160a060020a0316146107a857600080fd5b600160a060020a03808316600081815260036020526040902060010154909116146107d257600080fd5b6107da610f00565b506040805160808101825284815260208082018490523392820192909252600160a060020a038416606082015260068054600181018083556000929092528251805193949293859360049093027ff652222313e28459528d920b65115c16c04f3efc82aaedc97be59f3f377c0d3f0192610858928492910190610f27565b506020828101516001838101919091556040808501516002808601805473ffffffffffffffffffffffffffffffffffffffff19908116600160a060020a039485161790915560609097015160039096018054909716958216959095179095558354909101909255918616600090815260079092529020805484019055506108de81610e31565b50505050565b60015481565b336000908152600760205260408120541161090457600080fd5b33600081815260076020526040808220805490839055905190929183156108fc02918491818181858888f19350505050158015610945573d6000803e3d6000fd5b5050565b600460205260009081526040902054600160a060020a031681565b600060058281548110151561097557fe5b60009182526020822060036004909202019081015490925090811161099957600080fd5b60008183600101548115156109aa57fe5b6001850154600280870154600160a060020a03166000908152600360205260408120909101805483019055929091049250905b6003850154811015610a3657826003600087600301848154811015156109ff57fe5b6000918252602080832090910154600160a060020a03168352820192909252604001902060020180549190910390556001016109dd565b505050505050565b60005481565b60008211610a5157600080fd5b60008151118015610a6457506014815111155b1515610a6f57600080fd5b33600081815260036020526040902060010154600160a060020a031614610a9557600080fd5b610a9e81610e7a565b1515610aa957600080fd5b610ab1610fa5565b5060408051608081018252848152602080820185905233928201929092526060810183905260058054600181018083556000929092528251805193949293859360049093027f036b6384b5eca791c62761152d0c79bb0604c104a5fb6f4eb0703f3154bb3db00192610b27928492910190610f27565b506020828101516001830155604083015160028301805473ffffffffffffffffffffffffffffffffffffffff1916600160a060020a0390921691909117905560608301518051610b7d9260038501920190610fd7565b5050600554610b929250600019019050610964565b50506000805460010190555050565b60076020526000908152604090205481565b6006805482908110610bc157fe5b60009182526020918290206004919091020180546040805160026001841615610100026000190190931692909204601f810185900485028301850190915280825291935091839190830182828015610c5a5780601f10610c2f57610100808354040283529160200191610c5a565b820191906000526020600020905b815481529060010190602001808311610c3d57829003601f168201915b505050506001830154600284015460039094015492939092600160a060020a0391821692501684565b6005805482908110610c9157fe5b60009182526020918290206004919091020180546040805160026001841615610100026000190190931692909204601f810185900485028301850190915280825291935091839190830182828015610d2a5780601f10610cff57610100808354040283529160200191610d2a565b820191906000526020600020905b815481529060010190602001808311610d0d57829003601f168201915b505050506001830154600290930154919291600160a060020a0316905083565b600160a060020a038082166000818152600360205260409020600101549091161415610d7557600080fd5b610d7d611045565b5060408051606081018252838152600160a060020a03831660208083018290526000838501819052918252600381529290208151805192938493610dc49284920190610f27565b506020828101516001838101805473ffffffffffffffffffffffffffffffffffffffff19908116600160a060020a03948516179091556040958601516002909501949094558054600090815260049093529390912080549092169416939093179092555080548101905550565b602080820180516060840151600160a060020a03908116600090815260039094526040808520600290810180549490940390935592519483015116835291200180549091019055565b6000805b8251811015610ebf57610ea78382815181101515610e9857fe5b90602001906020020151610eca565b1515610eb7576000915050610ec5565b600101610e7e565b50600190505b919050565b600160a060020a038082166000818152600360205260408120600101549092161415610ef857506001610ec5565b506000610ec5565b60408051608081018252606080825260006020830181905292820183905281019190915290565b828054600181600116156101000203166002900490600052602060002090601f016020900481019282601f10610f6857805160ff1916838001178555610f95565b82800160010185558215610f95579182015b82811115610f95578251825591602001919060010190610f7a565b50610fa1929150611070565b5090565b60806040519081016040528060608152602001600081526020016000600160a060020a03168152602001606081525090565b828054828255906000526020600020908101928215611039579160200282015b82811115611039578251825473ffffffffffffffffffffffffffffffffffffffff1916600160a060020a03909116178255602090920191600190910190610ff7565b50610fa192915061108d565b606060405190810160405280606081526020016000600160a060020a03168152602001600081525090565b61108a91905b80821115610fa15760008155600101611076565b90565b61108a91905b80821115610fa157805473ffffffffffffffffffffffffffffffffffffffff1916815560010161109356fea165627a7a7230582090b45d1dccc75377b492d29882127648c47202784c7f7f4bf6b73edaa57e56ac0029",
  "source": "pragma solidity ^0.5.0;\r\n\r\ncontract SplitBits {\r\n\r\n    // Our constructor\r\n    //constructor() {\r\n    //}\r\n    int public expenseCount = 0;\r\n    int public participantCount = 0;\r\n    int public paymentCount = 0;\r\n\r\n    struct Participant {\r\n        string name;\r\n        address waddress;\r\n        int balance;\r\n    }\r\n\r\n    struct Expense {\r\n        string title;\r\n        uint amount;\r\n        address payer; \r\n        address[] payees; \r\n    }\r\n\r\n    struct Payment {\r\n        string title;\r\n        uint amount;\r\n        address payer;\r\n        address payee;\r\n    }\r\n\r\n    mapping(address => Participant) public participants;\r\n    mapping(int => address) public participantsAddresses;\r\n\r\n    Expense[] public expenses;\r\n\r\n    Payment[] public payments;\r\n\r\n    function createParticipant(string memory _name, address _waddress) public {\r\n        require(_waddress != participants[_waddress].waddress);\r\n        Participant memory participant = Participant({name: _name, waddress: _waddress, balance: 0});\r\n        participants[_waddress] = participant;\r\n        participantsAddresses[participantCount] = _waddress;\r\n        participantCount++;\r\n    }\r\n\r\n    function createExpense(string memory _title, uint _amount, address[] memory _payees) public {\r\n        require(_amount > 0);\r\n        require(_payees.length > 0 && _payees.length <= 20);\r\n        require(msg.sender == participants[msg.sender].waddress);\r\n        require(isParticipants(_payees));\r\n        Expense memory expense = Expense(_title, _amount, msg.sender, _payees);\r\n        expenses.push(expense);\r\n        calculateBalance((expenses.length)-1);\r\n        expenseCount++;\r\n    }\r\n\r\n    mapping(address => uint) public withdrawals;\r\n    \r\n    function createPayment(string memory _title, address _payee, uint _amount) public payable {   \r\n        require(_amount > 0);\r\n        require(_payee != msg.sender);\r\n        require(msg.sender == participants[msg.sender].waddress);\r\n        require(_payee == participants[_payee].waddress);\r\n        Payment memory payment = Payment({title: _title, amount: _amount, payer: msg.sender, payee: _payee});\r\n        payments.push(payment);\r\n        paymentCount++;\r\n        withdrawals[_payee] += _amount;\r\n        syncBalancePayment(payment);\r\n    }\r\n\r\n    function syncBalancePayment(Payment memory payment) internal {\r\n        participants[payment.payee].balance -= int(payment.amount);\r\n        participants[payment.payer].balance += int(payment.amount);\r\n    }\r\n\r\n\r\n    function calculateBalance(uint indexExpense) public {\r\n        Expense storage expense = expenses[indexExpense];\r\n        uint contributors = expense.payees.length;\r\n        require(contributors > 0);\r\n        int _portion = int(expense.amount / contributors);\r\n        int _amount = int(expense.amount);\r\n        \r\n        participants[expense.payer].balance += _amount;\r\n        for (uint i = 0; i < expense.payees.length; i++) {\r\n            participants[expense.payees[i]].balance -= _portion;  \r\n        }       \r\n    }\r\n\r\n    function withdraw() public payable {\r\n        require(withdrawals[msg.sender] > 0);\r\n        uint amount = withdrawals[msg.sender];\r\n        withdrawals[msg.sender] = 0;\r\n        msg.sender.transfer(amount);\r\n    }\r\n\r\n    function isParticipants(address[] memory list) internal returns (bool) {\r\n        for (uint i = 0; i < list.length; i++) {\r\n            if (!isParticipant(list[i])) {\r\n                return false;\r\n            }\r\n        }\r\n        return true;\r\n    }\r\n\r\n    /// @notice Check if each address of the list is registred as participant\r\n    /// @param _waddress the address to check \r\n    /// @return true if all the list is registred as participant, false otherwise\r\n    function isParticipant(address _waddress) internal returns (bool) {\r\n        if (_waddress == participants[_waddress].waddress) {\r\n            return true;\r\n        }else {\r\n            return false;\r\n        }\r\n    }\r\n\r\n}",
  "sourcePath": "D:/SHUBH/PROJECTS/Blockchain/SplitBits/contracts/SplitBits.sol",
  "compiler": {
    "name": "solc",
    "version": "0.5.0+commit.1d4f565a.Emscripten.clang"
  },
  "schemaVersion": "3.0.1",
  "updatedAt": "2022-11-01T18:15:41.303Z",
  "devdoc": {
    "methods": {}
  },
  "userdoc": {
    "methods": {}
  }
}