{
  "contractName": "SplitBits",
  "abi": [
    {
      "inputs": [],
      "name": "expenseCount",
      "outputs": [
        {
          "internalType": "int256",
          "name": "",
          "type": "int256"
        }
      ],
      "stateMutability": "view",
      "type": "function",
      "constant": true
    },
    {
      "inputs": [
        {
          "internalType": "uint256",
          "name": "",
          "type": "uint256"
        }
      ],
      "name": "expenses",
      "outputs": [
        {
          "internalType": "string",
          "name": "title",
          "type": "string"
        },
        {
          "internalType": "uint256",
          "name": "amount",
          "type": "uint256"
        },
        {
          "internalType": "address",
          "name": "payer",
          "type": "address"
        }
      ],
      "stateMutability": "view",
      "type": "function",
      "constant": true
    },
    {
      "inputs": [],
      "name": "participantCount",
      "outputs": [
        {
          "internalType": "int256",
          "name": "",
          "type": "int256"
        }
      ],
      "stateMutability": "view",
      "type": "function",
      "constant": true
    },
    {
      "inputs": [
        {
          "internalType": "address",
          "name": "",
          "type": "address"
        }
      ],
      "name": "participants",
      "outputs": [
        {
          "internalType": "string",
          "name": "name",
          "type": "string"
        },
        {
          "internalType": "address",
          "name": "waddress",
          "type": "address"
        },
        {
          "internalType": "int256",
          "name": "balance",
          "type": "int256"
        }
      ],
      "stateMutability": "view",
      "type": "function",
      "constant": true
    },
    {
      "inputs": [
        {
          "internalType": "int256",
          "name": "",
          "type": "int256"
        }
      ],
      "name": "participantsAddresses",
      "outputs": [
        {
          "internalType": "address",
          "name": "",
          "type": "address"
        }
      ],
      "stateMutability": "view",
      "type": "function",
      "constant": true
    },
    {
      "inputs": [],
      "name": "paymentCount",
      "outputs": [
        {
          "internalType": "int256",
          "name": "",
          "type": "int256"
        }
      ],
      "stateMutability": "view",
      "type": "function",
      "constant": true
    },
    {
      "inputs": [
        {
          "internalType": "uint256",
          "name": "",
          "type": "uint256"
        }
      ],
      "name": "payments",
      "outputs": [
        {
          "internalType": "string",
          "name": "title",
          "type": "string"
        },
        {
          "internalType": "uint256",
          "name": "amount",
          "type": "uint256"
        },
        {
          "internalType": "address",
          "name": "payer",
          "type": "address"
        },
        {
          "internalType": "address",
          "name": "payee",
          "type": "address"
        }
      ],
      "stateMutability": "view",
      "type": "function",
      "constant": true
    },
    {
      "inputs": [
        {
          "internalType": "address",
          "name": "",
          "type": "address"
        }
      ],
      "name": "withdrawals",
      "outputs": [
        {
          "internalType": "uint256",
          "name": "",
          "type": "uint256"
        }
      ],
      "stateMutability": "view",
      "type": "function",
      "constant": true
    },
    {
      "inputs": [
        {
          "internalType": "string",
          "name": "_name",
          "type": "string"
        },
        {
          "internalType": "address",
          "name": "_waddress",
          "type": "address"
        }
      ],
      "name": "createParticipant",
      "outputs": [],
      "stateMutability": "nonpayable",
      "type": "function"
    },
    {
      "inputs": [
        {
          "internalType": "string",
          "name": "_title",
          "type": "string"
        },
        {
          "internalType": "uint256",
          "name": "_amount",
          "type": "uint256"
        },
        {
          "internalType": "address[]",
          "name": "_payees",
          "type": "address[]"
        }
      ],
      "name": "createExpense",
      "outputs": [],
      "stateMutability": "nonpayable",
      "type": "function"
    },
    {
      "inputs": [
        {
          "internalType": "string",
          "name": "_title",
          "type": "string"
        },
        {
          "internalType": "address",
          "name": "_payee",
          "type": "address"
        },
        {
          "internalType": "uint256",
          "name": "_amount",
          "type": "uint256"
        }
      ],
      "name": "createPayment",
      "outputs": [],
      "stateMutability": "payable",
      "type": "function",
      "payable": true
    },
    {
      "inputs": [],
      "name": "getSmartContractBalance",
      "outputs": [
        {
          "internalType": "uint256",
          "name": "",
          "type": "uint256"
        }
      ],
      "stateMutability": "view",
      "type": "function",
      "constant": true
    },
    {
      "inputs": [
        {
          "internalType": "uint256",
          "name": "indexExpense",
          "type": "uint256"
        }
      ],
      "name": "calculateBalance",
      "outputs": [],
      "stateMutability": "nonpayable",
      "type": "function"
    },
    {
      "inputs": [],
      "name": "withdraw",
      "outputs": [],
      "stateMutability": "payable",
      "type": "function",
      "payable": true
    }
  ],
  "bytecode": "0x6080604052600080556000600155600060025534801561001e57600080fd5b506110d78061002e6000396000f3fe6080604052600436106100dd5760003560e01c80635145cbc01161007f5780637a9262a2116100595780637a9262a21461047a57806387d81789146104ad578063af4afe0a14610588578063f8008ec91461060c576100dd565b80635145cbc01461031557806352e7df5d1461032a57806366aeccbf1461033f576100dd565b8063362f04c0116100bb578063362f04c0146102885780633ccfd60b1461029d5780634274650d146102a5578063508c9dbf146102eb576100dd565b80630937e68a146100e257806309e69ede1461010957806332d79408146101d4575b600080fd5b3480156100ee57600080fd5b506100f76106c8565b60408051918252519081900360200190f35b34801561011557600080fd5b5061013c6004803603602081101561012c57600080fd5b50356001600160a01b03166106ce565b6040518080602001846001600160a01b03166001600160a01b03168152602001838152602001828103825285818151815260200191508051906020019080838360005b8381101561019757818101518382015260200161017f565b50505050905090810190601f1680156101c45780820380516001836020036101000a031916815260200191505b5094505050505060405180910390f35b610286600480360360608110156101ea57600080fd5b810190602081018135600160201b81111561020457600080fd5b82018360208201111561021657600080fd5b803590602001918460018302840111600160201b8311171561023757600080fd5b91908080601f016020809104026020016040519081016040528093929190818152602001838380828437600092019190915250929550506001600160a01b038335169350505060200135610785565b005b34801561029457600080fd5b506100f76108f8565b6102866108fe565b3480156102b157600080fd5b506102cf600480360360208110156102c857600080fd5b5035610967565b604080516001600160a01b039092168252519081900360200190f35b3480156102f757600080fd5b506102866004803603602081101561030e57600080fd5b5035610982565b34801561032157600080fd5b506100f7610a54565b34801561033657600080fd5b506100f7610a59565b34801561034b57600080fd5b506102866004803603606081101561036257600080fd5b810190602081018135600160201b81111561037c57600080fd5b82018360208201111561038e57600080fd5b803590602001918460018302840111600160201b831117156103af57600080fd5b91908080601f01602080910402602001604051908101604052809392919081815260200183838082843760009201919091525092958435959094909350604081019250602001359050600160201b81111561040957600080fd5b82018360208201111561041b57600080fd5b803590602001918460208302840111600160201b8311171561043c57600080fd5b919080806020026020016040519081016040528093929190818152602001838360200280828437600092019190915250929550610a5f945050505050565b34801561048657600080fd5b506100f76004803603602081101561049d57600080fd5b50356001600160a01b0316610ba5565b3480156104b957600080fd5b506104d7600480360360208110156104d057600080fd5b5035610bb7565b6040518080602001858152602001846001600160a01b03166001600160a01b03168152602001836001600160a01b03166001600160a01b03168152602001828103825286818151815260200191508051906020019080838360005b8381101561054a578181015183820152602001610532565b50505050905090810190601f1680156105775780820380516001836020036101000a031916815260200191505b509550505050505060405180910390f35b34801561059457600080fd5b506105b2600480360360208110156105ab57600080fd5b5035610c86565b6040518080602001848152602001836001600160a01b03166001600160a01b03168152602001828103825285818151815260200191508051906020019080838360008381101561019757818101518382015260200161017f565b34801561061857600080fd5b506102866004803603604081101561062f57600080fd5b810190602081018135600160201b81111561064957600080fd5b82018360208201111561065b57600080fd5b803590602001918460018302840111600160201b8311171561067c57600080fd5b91908080601f016020809104026020016040519081016040528093929190818152602001838380828437600092019190915250929550505090356001600160a01b03169150610d4c9050565b60025481565b60036020908152600091825260409182902080548351601f600260001961010060018616150201909316929092049182018490048402810184019094528084529092918391908301828280156107655780601f1061073a57610100808354040283529160200191610765565b820191906000526020600020905b81548152906001019060200180831161074857829003601f168201915b50505050600183015460029093015491926001600160a01b031691905083565b6000811161079257600080fd5b6001600160a01b0382163314156107a857600080fd5b336000818152600360205260409020600101546001600160a01b0316146107ce57600080fd5b6001600160a01b03808316600081815260036020526040902060010154909116146107f857600080fd5b610800610eef565b5060408051608081018252848152602080820184905233928201929092526001600160a01b038416606082015260068054600181018255600091909152815180519293849360049093027ff652222313e28459528d920b65115c16c04f3efc82aaedc97be59f3f377c0d3f019261087a9284920190610f29565b50602082810151600183810191909155604080850151600280860180546001600160a01b03199081166001600160a01b0394851617909155606090970151600390960180549097169582169590951790955583549091019092559185166000908152600790925290208054830190556108f281610e26565b50505050565b60015481565b3360009081526007602052604090205461091757600080fd5b336000818152600760205260408082208054908390559051909291670de0b6b3a7640000840280156108fc02929091818181858888f19350505050158015610963573d6000803e3d6000fd5b5050565b6004602052600090815260409020546001600160a01b031681565b60006005828154811061099157fe5b600091825260209091206004909102016003810154909150806109b357600080fd5b6000818360010154816109c257fe5b60018501546002808701546001600160a01b03166000908152600360205260408120909101805483019055929091049250905b6003850154811015610a4c578260036000876003018481548110610a1557fe5b60009182526020808320909101546001600160a01b03168352820192909252604001902060020180549190910390556001016109f5565b505050505050565b475b90565b60005481565b60008211610a6c57600080fd5b60008151118015610a7f57506014815111155b610a8857600080fd5b336000818152600360205260409020600101546001600160a01b031614610aae57600080fd5b610ab781610e6f565b610ac057600080fd5b610ac8610fa7565b5060408051608081018252848152602080820185905233928201929092526060810183905260058054600181018255600091909152815180519293849360049093027f036b6384b5eca791c62761152d0c79bb0604c104a5fb6f4eb0703f3154bb3db00192610b3a9284920190610f29565b50602082810151600183015560408301516002830180546001600160a01b0319166001600160a01b0390921691909117905560608301518051610b839260038501920190610fd8565b5050600554610b96915060001901610982565b50506000805460010190555050565b60076020526000908152604090205481565b60068181548110610bc457fe5b60009182526020918290206004919091020180546040805160026001841615610100026000190190931692909204601f810185900485028301850190915280825291935091839190830182828015610c5d5780601f10610c3257610100808354040283529160200191610c5d565b820191906000526020600020905b815481529060010190602001808311610c4057829003601f168201915b5050505060018301546002840154600390940154929390926001600160a01b0391821692501684565b60058181548110610c9357fe5b60009182526020918290206004919091020180546040805160026001841615610100026000190190931692909204601f810185900485028301850190915280825291935091839190830182828015610d2c5780601f10610d0157610100808354040283529160200191610d2c565b820191906000526020600020905b815481529060010190602001808311610d0f57829003601f168201915b5050505060018301546002909301549192916001600160a01b0316905083565b6001600160a01b038082166000818152600360205260409020600101549091161415610d7757600080fd5b610d7f611039565b50604080516060810182528381526001600160a01b03831660208083018290526000838501819052918252600381529290208151805192938493610dc69284920190610f29565b50602082810151600183810180546001600160a01b03199081166001600160a01b03948516179091556040958601516002909501949094558054600090815260049093529390912080549092169416939093179092555080548101905550565b6020808201805160608401516001600160a01b03908116600090815260039094526040808520600290810180549490940390935592519483015116835291200180549091019055565b6000805b8251811015610eae57610e98838281518110610e8b57fe5b6020026020010151610eb9565b610ea6576000915050610eb4565b600101610e73565b50600190505b919050565b6001600160a01b038082166000818152600360205260408120600101549092161415610ee757506001610eb4565b506000610eb4565b6040518060800160405280606081526020016000815260200160006001600160a01b0316815260200160006001600160a01b031681525090565b828054600181600116156101000203166002900490600052602060002090601f016020900481019282601f10610f6a57805160ff1916838001178555610f97565b82800160010185558215610f97579182015b82811115610f97578251825591602001919060010190610f7c565b50610fa3929150611063565b5090565b6040518060800160405280606081526020016000815260200160006001600160a01b03168152602001606081525090565b82805482825590600052602060002090810192821561102d579160200282015b8281111561102d57825182546001600160a01b0319166001600160a01b03909116178255602090920191600190910190610ff8565b50610fa392915061107d565b60405180606001604052806060815260200160006001600160a01b03168152602001600081525090565b610a5691905b80821115610fa35760008155600101611069565b610a5691905b80821115610fa35780546001600160a01b031916815560010161108356fea2646970667358221220b7bee640919711d4eccb0e2316b6f9e5e7d52567319bb23c7d020c2bcc21470864736f6c63430006000033",
  "source": "pragma solidity ^0.6.0;\r\n\r\ncontract SplitBits {\r\n\r\n    // Our constructor\r\n    //constructor() {\r\n    //}\r\n    int public expenseCount = 0;\r\n    int public participantCount = 0;\r\n    int public paymentCount = 0;\r\n\r\n    struct Participant {\r\n        string name;\r\n        address waddress;\r\n        int balance;\r\n    }\r\n\r\n    struct Expense {\r\n        string title;\r\n        uint amount;\r\n        address payer; \r\n        address[] payees; \r\n    }\r\n\r\n    struct Payment {\r\n        string title;\r\n        uint amount;\r\n        address payer;\r\n        address payee;\r\n    }\r\n\r\n    mapping(address => Participant) public participants;\r\n    mapping(int => address) public participantsAddresses;\r\n\r\n    Expense[] public expenses;\r\n\r\n    Payment[] public payments;\r\n\r\n    function createParticipant(string memory _name, address _waddress) public {\r\n        require(_waddress != participants[_waddress].waddress);\r\n        Participant memory participant = Participant({name: _name, waddress: _waddress, balance: 0});\r\n        participants[_waddress] = participant;\r\n        participantsAddresses[participantCount] = _waddress;\r\n        participantCount++;\r\n    }\r\n\r\n    function createExpense(string memory _title, uint _amount, address[] memory _payees) public {\r\n        require(_amount > 0);\r\n        require(_payees.length > 0 && _payees.length <= 20);\r\n        require(msg.sender == participants[msg.sender].waddress);\r\n        require(isParticipants(_payees));\r\n        Expense memory expense = Expense(_title, _amount, msg.sender, _payees);\r\n        expenses.push(expense);\r\n        calculateBalance((expenses.length)-1);\r\n        expenseCount++;\r\n    }\r\n\r\n    mapping(address => uint) public withdrawals;\r\n    \r\n    function createPayment(string memory _title, address _payee, uint _amount) public payable {   \r\n        require(_amount > 0);\r\n        require(_payee != msg.sender);\r\n        require(msg.sender == participants[msg.sender].waddress);\r\n        require(_payee == participants[_payee].waddress);\r\n        Payment memory payment = Payment({title: _title, amount: _amount, payer: msg.sender, payee: _payee});\r\n        payments.push(payment);\r\n        paymentCount++;\r\n        withdrawals[_payee] += _amount;\r\n        syncBalancePayment(payment);\r\n    }\r\n\r\n    function getSmartContractBalance() external view returns(uint) {\r\n        return address(this).balance;\r\n    }\r\n\r\n    function syncBalancePayment(Payment memory payment) internal {\r\n        participants[payment.payee].balance -= int(payment.amount);\r\n        participants[payment.payer].balance += int(payment.amount);\r\n    }\r\n\r\n\r\n    function calculateBalance(uint indexExpense) public {\r\n        Expense storage expense = expenses[indexExpense];\r\n        uint contributors = expense.payees.length;\r\n        require(contributors > 0);\r\n        int _portion = int(expense.amount / contributors);\r\n        int _amount = int(expense.amount);\r\n        \r\n        participants[expense.payer].balance += _amount;\r\n        for (uint i = 0; i < expense.payees.length; i++) {\r\n            participants[expense.payees[i]].balance -= _portion;  \r\n        }       \r\n    }\r\n\r\n    function withdraw() payable public  {\r\n        require(withdrawals[msg.sender] > 0);\r\n        uint amount = withdrawals[msg.sender];\r\n        withdrawals[msg.sender] = 0;\r\n        payable(msg.sender).transfer(amount*1000000000000000000 );\r\n    }\r\n\r\n    function isParticipants(address[] memory list) internal returns (bool) {\r\n        for (uint i = 0; i < list.length; i++) {\r\n            if (!isParticipant(list[i])) {\r\n                return false;\r\n            }\r\n        }\r\n        return true;\r\n    }\r\n\r\n    /// @notice Check if each address of the list is registred as participant\r\n    /// @param _waddress the address to check \r\n    /// @return true if all the list is registred as participant, false otherwise\r\n    function isParticipant(address _waddress) internal returns (bool) {\r\n        if (_waddress == participants[_waddress].waddress) {\r\n            return true;\r\n        }else {\r\n            return false;\r\n        }\r\n    }\r\n\r\n}",
  "sourcePath": "D:\\SHUBH\\PROJECTS\\Blockchain\\SplitBits\\contracts\\SplitBits.sol",
  "compiler": {
    "name": "solc",
    "version": "0.6.0+commit.26b70077.Emscripten.clang"
  },
  "schemaVersion": "3.4.10",
  "updatedAt": "2022-11-04T17:51:27.651Z",
  "networkType": "ethereum",
  "devdoc": {
    "methods": {}
  },
  "userdoc": {
    "methods": {}
  }
}